{
  "_format": "hh-sol-artifact-1",
  "contractName": "PropertyRegistry",
  "sourceName": "contracts/PropertyRegistry.sol",
  "abi": [
    {
      "inputs": [
        {
          "internalType": "address",
          "name": "initialOwner",
          "type": "address"
        }
      ],
      "stateMutability": "nonpayable",
      "type": "constructor"
    },
    {
      "inputs": [],
      "name": "ERC721EnumerableForbiddenBatchMint",
      "type": "error"
    },
    {
      "inputs": [
        {
          "internalType": "address",
          "name": "sender",
          "type": "address"
        },
        {
          "internalType": "uint256",
          "name": "tokenId",
          "type": "uint256"
        },
        {
          "internalType": "address",
          "name": "owner",
          "type": "address"
        }
      ],
      "name": "ERC721IncorrectOwner",
      "type": "error"
    },
    {
      "inputs": [
        {
          "internalType": "address",
          "name": "operator",
          "type": "address"
        },
        {
          "internalType": "uint256",
          "name": "tokenId",
          "type": "uint256"
        }
      ],
      "name": "ERC721InsufficientApproval",
      "type": "error"
    },
    {
      "inputs": [
        {
          "internalType": "address",
          "name": "approver",
          "type": "address"
        }
      ],
      "name": "ERC721InvalidApprover",
      "type": "error"
    },
    {
      "inputs": [
        {
          "internalType": "address",
          "name": "operator",
          "type": "address"
        }
      ],
      "name": "ERC721InvalidOperator",
      "type": "error"
    },
    {
      "inputs": [
        {
          "internalType": "address",
          "name": "owner",
          "type": "address"
        }
      ],
      "name": "ERC721InvalidOwner",
      "type": "error"
    },
    {
      "inputs": [
        {
          "internalType": "address",
          "name": "receiver",
          "type": "address"
        }
      ],
      "name": "ERC721InvalidReceiver",
      "type": "error"
    },
    {
      "inputs": [
        {
          "internalType": "address",
          "name": "sender",
          "type": "address"
        }
      ],
      "name": "ERC721InvalidSender",
      "type": "error"
    },
    {
      "inputs": [
        {
          "internalType": "uint256",
          "name": "tokenId",
          "type": "uint256"
        }
      ],
      "name": "ERC721NonexistentToken",
      "type": "error"
    },
    {
      "inputs": [
        {
          "internalType": "address",
          "name": "owner",
          "type": "address"
        },
        {
          "internalType": "uint256",
          "name": "index",
          "type": "uint256"
        }
      ],
      "name": "ERC721OutOfBoundsIndex",
      "type": "error"
    },
    {
      "inputs": [
        {
          "internalType": "address",
          "name": "owner",
          "type": "address"
        }
      ],
      "name": "OwnableInvalidOwner",
      "type": "error"
    },
    {
      "inputs": [
        {
          "internalType": "address",
          "name": "account",
          "type": "address"
        }
      ],
      "name": "OwnableUnauthorizedAccount",
      "type": "error"
    },
    {
      "anonymous": false,
      "inputs": [
        {
          "indexed": true,
          "internalType": "address",
          "name": "owner",
          "type": "address"
        },
        {
          "indexed": true,
          "internalType": "address",
          "name": "approved",
          "type": "address"
        },
        {
          "indexed": true,
          "internalType": "uint256",
          "name": "tokenId",
          "type": "uint256"
        }
      ],
      "name": "Approval",
      "type": "event"
    },
    {
      "anonymous": false,
      "inputs": [
        {
          "indexed": true,
          "internalType": "address",
          "name": "owner",
          "type": "address"
        },
        {
          "indexed": true,
          "internalType": "address",
          "name": "operator",
          "type": "address"
        },
        {
          "indexed": false,
          "internalType": "bool",
          "name": "approved",
          "type": "bool"
        }
      ],
      "name": "ApprovalForAll",
      "type": "event"
    },
    {
      "anonymous": false,
      "inputs": [
        {
          "indexed": true,
          "internalType": "address",
          "name": "previousOwner",
          "type": "address"
        },
        {
          "indexed": true,
          "internalType": "address",
          "name": "newOwner",
          "type": "address"
        }
      ],
      "name": "OwnershipTransferred",
      "type": "event"
    },
    {
      "anonymous": false,
      "inputs": [
        {
          "indexed": true,
          "internalType": "uint256",
          "name": "tokenId",
          "type": "uint256"
        },
        {
          "indexed": false,
          "internalType": "uint64",
          "name": "streamId",
          "type": "uint64"
        },
        {
          "indexed": false,
          "internalType": "address",
          "name": "owner",
          "type": "address"
        },
        {
          "indexed": false,
          "internalType": "string",
          "name": "unibaseId",
          "type": "string"
        }
      ],
      "name": "PropertyRegistered",
      "type": "event"
    },
    {
      "anonymous": false,
      "inputs": [
        {
          "indexed": true,
          "internalType": "address",
          "name": "from",
          "type": "address"
        },
        {
          "indexed": true,
          "internalType": "address",
          "name": "to",
          "type": "address"
        },
        {
          "indexed": true,
          "internalType": "uint256",
          "name": "tokenId",
          "type": "uint256"
        }
      ],
      "name": "Transfer",
      "type": "event"
    },
    {
      "inputs": [
        {
          "internalType": "address",
          "name": "to",
          "type": "address"
        },
        {
          "internalType": "uint256",
          "name": "tokenId",
          "type": "uint256"
        }
      ],
      "name": "approve",
      "outputs": [],
      "stateMutability": "nonpayable",
      "type": "function"
    },
    {
      "inputs": [
        {
          "internalType": "address",
          "name": "owner",
          "type": "address"
        }
      ],
      "name": "balanceOf",
      "outputs": [
        {
          "internalType": "uint256",
          "name": "",
          "type": "uint256"
        }
      ],
      "stateMutability": "view",
      "type": "function"
    },
    {
      "inputs": [
        {
          "internalType": "uint256",
          "name": "tokenId",
          "type": "uint256"
        }
      ],
      "name": "getApproved",
      "outputs": [
        {
          "internalType": "address",
          "name": "",
          "type": "address"
        }
      ],
      "stateMutability": "view",
      "type": "function"
    },
    {
      "inputs": [
        {
          "internalType": "address",
          "name": "owner",
          "type": "address"
        },
        {
          "internalType": "address",
          "name": "operator",
          "type": "address"
        }
      ],
      "name": "isApprovedForAll",
      "outputs": [
        {
          "internalType": "bool",
          "name": "",
          "type": "bool"
        }
      ],
      "stateMutability": "view",
      "type": "function"
    },
    {
      "inputs": [],
      "name": "name",
      "outputs": [
        {
          "internalType": "string",
          "name": "",
          "type": "string"
        }
      ],
      "stateMutability": "view",
      "type": "function"
    },
    {
      "inputs": [],
      "name": "owner",
      "outputs": [
        {
          "internalType": "address",
          "name": "",
          "type": "address"
        }
      ],
      "stateMutability": "view",
      "type": "function"
    },
    {
      "inputs": [
        {
          "internalType": "uint256",
          "name": "tokenId",
          "type": "uint256"
        }
      ],
      "name": "ownerOf",
      "outputs": [
        {
          "internalType": "address",
          "name": "",
          "type": "address"
        }
      ],
      "stateMutability": "view",
      "type": "function"
    },
    {
      "inputs": [
        {
          "internalType": "uint256",
          "name": "",
          "type": "uint256"
        }
      ],
      "name": "propertyDetails",
      "outputs": [
        {
          "internalType": "uint64",
          "name": "streamId",
          "type": "uint64"
        },
        {
          "internalType": "string",
          "name": "metadataUri",
          "type": "string"
        },
        {
          "internalType": "string",
          "name": "unibaseId",
          "type": "string"
        },
        {
          "internalType": "uint256",
          "name": "registeredAt",
          "type": "uint256"
        }
      ],
      "stateMutability": "view",
      "type": "function"
    },
    {
      "inputs": [
        {
          "internalType": "address",
          "name": "owner",
          "type": "address"
        },
        {
          "internalType": "uint64",
          "name": "streamId",
          "type": "uint64"
        },
        {
          "internalType": "string",
          "name": "metadataUri",
          "type": "string"
        },
        {
          "internalType": "string",
          "name": "unibaseId",
          "type": "string"
        }
      ],
      "name": "registerProperty",
      "outputs": [
        {
          "internalType": "uint256",
          "name": "",
          "type": "uint256"
        }
      ],
      "stateMutability": "nonpayable",
      "type": "function"
    },
    {
      "inputs": [],
      "name": "renounceOwnership",
      "outputs": [],
      "stateMutability": "nonpayable",
      "type": "function"
    },
    {
      "inputs": [
        {
          "internalType": "address",
          "name": "from",
          "type": "address"
        },
        {
          "internalType": "address",
          "name": "to",
          "type": "address"
        },
        {
          "internalType": "uint256",
          "name": "tokenId",
          "type": "uint256"
        }
      ],
      "name": "safeTransferFrom",
      "outputs": [],
      "stateMutability": "nonpayable",
      "type": "function"
    },
    {
      "inputs": [
        {
          "internalType": "address",
          "name": "from",
          "type": "address"
        },
        {
          "internalType": "address",
          "name": "to",
          "type": "address"
        },
        {
          "internalType": "uint256",
          "name": "tokenId",
          "type": "uint256"
        },
        {
          "internalType": "bytes",
          "name": "data",
          "type": "bytes"
        }
      ],
      "name": "safeTransferFrom",
      "outputs": [],
      "stateMutability": "nonpayable",
      "type": "function"
    },
    {
      "inputs": [
        {
          "internalType": "address",
          "name": "operator",
          "type": "address"
        },
        {
          "internalType": "bool",
          "name": "approved",
          "type": "bool"
        }
      ],
      "name": "setApprovalForAll",
      "outputs": [],
      "stateMutability": "nonpayable",
      "type": "function"
    },
    {
      "inputs": [
        {
          "internalType": "bytes4",
          "name": "interfaceId",
          "type": "bytes4"
        }
      ],
      "name": "supportsInterface",
      "outputs": [
        {
          "internalType": "bool",
          "name": "",
          "type": "bool"
        }
      ],
      "stateMutability": "view",
      "type": "function"
    },
    {
      "inputs": [],
      "name": "symbol",
      "outputs": [
        {
          "internalType": "string",
          "name": "",
          "type": "string"
        }
      ],
      "stateMutability": "view",
      "type": "function"
    },
    {
      "inputs": [
        {
          "internalType": "uint256",
          "name": "index",
          "type": "uint256"
        }
      ],
      "name": "tokenByIndex",
      "outputs": [
        {
          "internalType": "uint256",
          "name": "",
          "type": "uint256"
        }
      ],
      "stateMutability": "view",
      "type": "function"
    },
    {
      "inputs": [
        {
          "internalType": "address",
          "name": "owner",
          "type": "address"
        },
        {
          "internalType": "uint256",
          "name": "index",
          "type": "uint256"
        }
      ],
      "name": "tokenOfOwnerByIndex",
      "outputs": [
        {
          "internalType": "uint256",
          "name": "",
          "type": "uint256"
        }
      ],
      "stateMutability": "view",
      "type": "function"
    },
    {
      "inputs": [
        {
          "internalType": "uint256",
          "name": "tokenId",
          "type": "uint256"
        }
      ],
      "name": "tokenURI",
      "outputs": [
        {
          "internalType": "string",
          "name": "",
          "type": "string"
        }
      ],
      "stateMutability": "view",
      "type": "function"
    },
    {
      "inputs": [],
      "name": "totalSupply",
      "outputs": [
        {
          "internalType": "uint256",
          "name": "",
          "type": "uint256"
        }
      ],
      "stateMutability": "view",
      "type": "function"
    },
    {
      "inputs": [
        {
          "internalType": "address",
          "name": "from",
          "type": "address"
        },
        {
          "internalType": "address",
          "name": "to",
          "type": "address"
        },
        {
          "internalType": "uint256",
          "name": "tokenId",
          "type": "uint256"
        }
      ],
      "name": "transferFrom",
      "outputs": [],
      "stateMutability": "nonpayable",
      "type": "function"
    },
    {
      "inputs": [
        {
          "internalType": "address",
          "name": "newOwner",
          "type": "address"
        }
      ],
      "name": "transferOwnership",
      "outputs": [],
      "stateMutability": "nonpayable",
      "type": "function"
    }
  ],
  "bytecode": "0x608060405234801561001057600080fd5b5060405161335138038061335183398181016040528101906100329190610272565b806040518060400160405280601881526020017f556e69626173652050726f7065727479204d61746368657200000000000000008152506040518060400160405280600881526020017f55504d2d50524f5000000000000000000000000000000000000000000000000081525081600090816100ae91906104ef565b5080600190816100be91906104ef565b505050600073ffffffffffffffffffffffffffffffffffffffff168173ffffffffffffffffffffffffffffffffffffffff16036101335760006040517f1e4fbdf700000000000000000000000000000000000000000000000000000000815260040161012a91906105d0565b60405180910390fd5b6101428161014960201b60201c565b50506105eb565b6000600a60009054906101000a900473ffffffffffffffffffffffffffffffffffffffff16905081600a60006101000a81548173ffffffffffffffffffffffffffffffffffffffff021916908373ffffffffffffffffffffffffffffffffffffffff1602179055508173ffffffffffffffffffffffffffffffffffffffff168173ffffffffffffffffffffffffffffffffffffffff167f8be0079c531659141344cd1fd0a4f28419497f9722a3daafe3b4186f6b6457e060405160405180910390a35050565b600080fd5b600073ffffffffffffffffffffffffffffffffffffffff82169050919050565b600061023f82610214565b9050919050565b61024f81610234565b811461025a57600080fd5b50565b60008151905061026c81610246565b92915050565b6000602082840312156102885761028761020f565b5b60006102968482850161025d565b91505092915050565b600081519050919050565b7f4e487b7100000000000000000000000000000000000000000000000000000000600052604160045260246000fd5b7f4e487b7100000000000000000000000000000000000000000000000000000000600052602260045260246000fd5b6000600282049050600182168061032057607f821691505b602082108103610333576103326102d9565b5b50919050565b60008190508160005260206000209050919050565b60006020601f8301049050919050565b600082821b905092915050565b60006008830261039b7fffffffffffffffffffffffffffffffffffffffffffffffffffffffffffffffff8261035e565b6103a5868361035e565b95508019841693508086168417925050509392505050565b6000819050919050565b6000819050919050565b60006103ec6103e76103e2846103bd565b6103c7565b6103bd565b9050919050565b6000819050919050565b610406836103d1565b61041a610412826103f3565b84845461036b565b825550505050565b600090565b61042f610422565b61043a8184846103fd565b505050565b5b8181101561045e57610453600082610427565b600181019050610440565b5050565b601f8211156104a35761047481610339565b61047d8461034e565b8101602085101561048c578190505b6104a06104988561034e565b83018261043f565b50505b505050565b600082821c905092915050565b60006104c6600019846008026104a8565b1980831691505092915050565b60006104df83836104b5565b9150826002028217905092915050565b6104f88261029f565b67ffffffffffffffff811115610511576105106102aa565b5b61051b8254610308565b610526828285610462565b600060209050601f8311600181146105595760008415610547578287015190505b61055185826104d3565b8655506105b9565b601f19841661056786610339565b60005b8281101561058f5784890151825560018201915060208501945060208101905061056a565b868310156105ac57848901516105a8601f8916826104b5565b8355505b6001600288020188555050505b505050505050565b6105ca81610234565b82525050565b60006020820190506105e560008301846105c1565b92915050565b612d57806105fa6000396000f3fe608060405234801561001057600080fd5b50600436106101375760003560e01c806370a08231116100b8578063996ef5bc1161007c578063996ef5bc14610365578063a22cb46514610395578063b88d4fde146103b1578063c87b56dd146103cd578063e985e9c5146103fd578063f2fde38b1461042d57610137565b806370a08231146102bc578063715018a6146102ec57806381db4147146102f65780638da5cb5b1461032957806395d89b411461034757610137565b806323b872dd116100ff57806323b872dd146101f45780632f745c591461021057806342842e0e146102405780634f6ccce71461025c5780636352211e1461028c57610137565b806301ffc9a71461013c57806306fdde031461016c578063081812fc1461018a578063095ea7b3146101ba57806318160ddd146101d6575b600080fd5b61015660048036038101906101519190611ff7565b610449565b604051610163919061203f565b60405180910390f35b61017461045b565b60405161018191906120ea565b60405180910390f35b6101a4600480360381019061019f9190612142565b6104ed565b6040516101b191906121b0565b60405180910390f35b6101d460048036038101906101cf91906121f7565b610509565b005b6101de61051f565b6040516101eb9190612246565b60405180910390f35b61020e60048036038101906102099190612261565b61052c565b005b61022a600480360381019061022591906121f7565b61062e565b6040516102379190612246565b60405180910390f35b61025a60048036038101906102559190612261565b6106d7565b005b61027660048036038101906102719190612142565b6106f7565b6040516102839190612246565b60405180910390f35b6102a660048036038101906102a19190612142565b61076d565b6040516102b391906121b0565b60405180910390f35b6102d660048036038101906102d191906122b4565b61077f565b6040516102e39190612246565b60405180910390f35b6102f4610839565b005b610310600480360381019061030b9190612142565b61084d565b6040516103209493929190612304565b60405180910390f35b6103316109a1565b60405161033e91906121b0565b60405180910390f35b61034f6109cb565b60405161035c91906120ea565b60405180910390f35b61037f600480360381019061037a91906124b8565b610a5d565b60405161038c9190612246565b60405180910390f35b6103af60048036038101906103aa9190612583565b610b84565b005b6103cb60048036038101906103c69190612664565b610b9a565b005b6103e760048036038101906103e29190612142565b610bbf565b6040516103f491906120ea565b60405180910390f35b610417600480360381019061041291906126e7565b610cc0565b604051610424919061203f565b60405180910390f35b610447600480360381019061044291906122b4565b610d54565b005b600061045482610dda565b9050919050565b60606000805461046a90612756565b80601f016020809104026020016040519081016040528092919081815260200182805461049690612756565b80156104e35780601f106104b8576101008083540402835291602001916104e3565b820191906000526020600020905b8154815290600101906020018083116104c657829003601f168201915b5050505050905090565b60006104f882610e54565b5061050282610edc565b9050919050565b61051b8282610516610f19565b610f21565b5050565b6000600880549050905090565b600073ffffffffffffffffffffffffffffffffffffffff168273ffffffffffffffffffffffffffffffffffffffff160361059e5760006040517f64a0ae9200000000000000000000000000000000000000000000000000000000815260040161059591906121b0565b60405180910390fd5b60006105b283836105ad610f19565b610f33565b90508373ffffffffffffffffffffffffffffffffffffffff168173ffffffffffffffffffffffffffffffffffffffff1614610628578382826040517f64283d7b00000000000000000000000000000000000000000000000000000000815260040161061f93929190612787565b60405180910390fd5b50505050565b60006106398361077f565b821061067e5782826040517fa57d13dc0000000000000000000000000000000000000000000000000000000081526004016106759291906127be565b60405180910390fd5b600660008473ffffffffffffffffffffffffffffffffffffffff1673ffffffffffffffffffffffffffffffffffffffff168152602001908152602001600020600083815260200190815260200160002054905092915050565b6106f283838360405180602001604052806000815250610b9a565b505050565b600061070161051f565b8210610747576000826040517fa57d13dc00000000000000000000000000000000000000000000000000000000815260040161073e9291906127be565b60405180910390fd5b6008828154811061075b5761075a6127e7565b5b90600052602060002001549050919050565b600061077882610e54565b9050919050565b60008073ffffffffffffffffffffffffffffffffffffffff168273ffffffffffffffffffffffffffffffffffffffff16036107f25760006040517f89c62b640000000000000000000000000000000000000000000000000000000081526004016107e991906121b0565b60405180910390fd5b600360008373ffffffffffffffffffffffffffffffffffffffff1673ffffffffffffffffffffffffffffffffffffffff168152602001908152602001600020549050919050565b610841610f49565b61084b6000610fd0565b565b600c6020528060005260406000206000915090508060000160009054906101000a900467ffffffffffffffff169080600101805461088a90612756565b80601f01602080910402602001604051908101604052809291908181526020018280546108b690612756565b80156109035780601f106108d857610100808354040283529160200191610903565b820191906000526020600020905b8154815290600101906020018083116108e657829003601f168201915b50505050509080600201805461091890612756565b80601f016020809104026020016040519081016040528092919081815260200182805461094490612756565b80156109915780601f1061096657610100808354040283529160200191610991565b820191906000526020600020905b81548152906001019060200180831161097457829003601f168201915b5050505050908060030154905084565b6000600a60009054906101000a900473ffffffffffffffffffffffffffffffffffffffff16905090565b6060600180546109da90612756565b80601f0160208091040260200160405190810160405280929190818152602001828054610a0690612756565b8015610a535780601f10610a2857610100808354040283529160200191610a53565b820191906000526020600020905b815481529060010190602001808311610a3657829003601f168201915b5050505050905090565b6000610a67610f49565b6000600b549050600b6000815480929190610a8190612845565b9190505550610a908682611096565b600060405180608001604052808767ffffffffffffffff16815260200186815260200185815260200142815250905080600c600084815260200190815260200160002060008201518160000160006101000a81548167ffffffffffffffff021916908367ffffffffffffffff1602179055506020820151816001019081610b179190612a39565b506040820151816002019081610b2d9190612a39565b5060608201518160030155905050817fc88918b2fce3f51c85980cf21d20a34457554cebbe67c4f4e46b3d1c40ce9e95878987604051610b6f93929190612b0b565b60405180910390a28192505050949350505050565b610b96610b8f610f19565b83836110b4565b5050565b610ba584848461052c565b610bb9610bb0610f19565b85858585611223565b50505050565b60606000600c60008481526020019081526020016000206003015403610c1a576040517f08c379a0000000000000000000000000000000000000000000000000000000008152600401610c1190612bbb565b60405180910390fd5b600c60008381526020019081526020016000206001018054610c3b90612756565b80601f0160208091040260200160405190810160405280929190818152602001828054610c6790612756565b8015610cb45780601f10610c8957610100808354040283529160200191610cb4565b820191906000526020600020905b815481529060010190602001808311610c9757829003601f168201915b50505050509050919050565b6000600560008473ffffffffffffffffffffffffffffffffffffffff1673ffffffffffffffffffffffffffffffffffffffff16815260200190815260200160002060008373ffffffffffffffffffffffffffffffffffffffff1673ffffffffffffffffffffffffffffffffffffffff16815260200190815260200160002060009054906101000a900460ff16905092915050565b610d5c610f49565b600073ffffffffffffffffffffffffffffffffffffffff168173ffffffffffffffffffffffffffffffffffffffff1603610dce5760006040517f1e4fbdf7000000000000000000000000000000000000000000000000000000008152600401610dc591906121b0565b60405180910390fd5b610dd781610fd0565b50565b60007f780e9d63000000000000000000000000000000000000000000000000000000007bffffffffffffffffffffffffffffffffffffffffffffffffffffffff1916827bffffffffffffffffffffffffffffffffffffffffffffffffffffffff19161480610e4d5750610e4c826113d4565b5b9050919050565b600080610e60836114b6565b9050600073ffffffffffffffffffffffffffffffffffffffff168173ffffffffffffffffffffffffffffffffffffffff1603610ed357826040517f7e273289000000000000000000000000000000000000000000000000000000008152600401610eca9190612246565b60405180910390fd5b80915050919050565b60006004600083815260200190815260200160002060009054906101000a900473ffffffffffffffffffffffffffffffffffffffff169050919050565b600033905090565b610f2e83838360016114f3565b505050565b6000610f408484846116b8565b90509392505050565b610f51610f19565b73ffffffffffffffffffffffffffffffffffffffff16610f6f6109a1565b73ffffffffffffffffffffffffffffffffffffffff1614610fce57610f92610f19565b6040517f118cdaa7000000000000000000000000000000000000000000000000000000008152600401610fc591906121b0565b60405180910390fd5b565b6000600a60009054906101000a900473ffffffffffffffffffffffffffffffffffffffff16905081600a60006101000a81548173ffffffffffffffffffffffffffffffffffffffff021916908373ffffffffffffffffffffffffffffffffffffffff1602179055508173ffffffffffffffffffffffffffffffffffffffff168173ffffffffffffffffffffffffffffffffffffffff167f8be0079c531659141344cd1fd0a4f28419497f9722a3daafe3b4186f6b6457e060405160405180910390a35050565b6110b08282604051806020016040528060008152506117d5565b5050565b600073ffffffffffffffffffffffffffffffffffffffff168273ffffffffffffffffffffffffffffffffffffffff160361112557816040517f5b08ba1800000000000000000000000000000000000000000000000000000000815260040161111c91906121b0565b60405180910390fd5b80600560008573ffffffffffffffffffffffffffffffffffffffff1673ffffffffffffffffffffffffffffffffffffffff16815260200190815260200160002060008473ffffffffffffffffffffffffffffffffffffffff1673ffffffffffffffffffffffffffffffffffffffff16815260200190815260200160002060006101000a81548160ff0219169083151502179055508173ffffffffffffffffffffffffffffffffffffffff168373ffffffffffffffffffffffffffffffffffffffff167f17307eab39ab6107e8899845ad3d59bd9653f200f220920489ca2b5937696c3183604051611216919061203f565b60405180910390a3505050565b60008373ffffffffffffffffffffffffffffffffffffffff163b11156113cd578273ffffffffffffffffffffffffffffffffffffffff1663150b7a02868685856040518563ffffffff1660e01b81526004016112829493929190612c30565b6020604051808303816000875af19250505080156112be57506040513d601f19601f820116820180604052508101906112bb9190612c91565b60015b611342573d80600081146112ee576040519150601f19603f3d011682016040523d82523d6000602084013e6112f3565b606091505b50600081510361133a57836040517f64a0ae9200000000000000000000000000000000000000000000000000000000815260040161133191906121b0565b60405180910390fd5b805160208201fd5b63150b7a0260e01b7bffffffffffffffffffffffffffffffffffffffffffffffffffffffff1916817bffffffffffffffffffffffffffffffffffffffffffffffffffffffff1916146113cb57836040517f64a0ae920000000000000000000000000000000000000000000000000000000081526004016113c291906121b0565b60405180910390fd5b505b5050505050565b60007f80ac58cd000000000000000000000000000000000000000000000000000000007bffffffffffffffffffffffffffffffffffffffffffffffffffffffff1916827bffffffffffffffffffffffffffffffffffffffffffffffffffffffff1916148061149f57507f5b5e139f000000000000000000000000000000000000000000000000000000007bffffffffffffffffffffffffffffffffffffffffffffffffffffffff1916827bffffffffffffffffffffffffffffffffffffffffffffffffffffffff1916145b806114af57506114ae826117f9565b5b9050919050565b60006002600083815260200190815260200160002060009054906101000a900473ffffffffffffffffffffffffffffffffffffffff169050919050565b808061152c5750600073ffffffffffffffffffffffffffffffffffffffff168273ffffffffffffffffffffffffffffffffffffffff1614155b1561166057600061153c84610e54565b9050600073ffffffffffffffffffffffffffffffffffffffff168373ffffffffffffffffffffffffffffffffffffffff16141580156115a757508273ffffffffffffffffffffffffffffffffffffffff168173ffffffffffffffffffffffffffffffffffffffff1614155b80156115ba57506115b88184610cc0565b155b156115fc57826040517fa9fbf51f0000000000000000000000000000000000000000000000000000000081526004016115f391906121b0565b60405180910390fd5b811561165e57838573ffffffffffffffffffffffffffffffffffffffff168273ffffffffffffffffffffffffffffffffffffffff167f8c5be1e5ebec7d5bd14f71427d1e84f3dd0314c0f7b2291e5b200ac8c7c3b92560405160405180910390a45b505b836004600085815260200190815260200160002060006101000a81548173ffffffffffffffffffffffffffffffffffffffff021916908373ffffffffffffffffffffffffffffffffffffffff16021790555050505050565b6000806116c6858585611863565b9050600073ffffffffffffffffffffffffffffffffffffffff168173ffffffffffffffffffffffffffffffffffffffff160361170a5761170584611a7d565b611749565b8473ffffffffffffffffffffffffffffffffffffffff168173ffffffffffffffffffffffffffffffffffffffff1614611748576117478185611ac6565b5b5b600073ffffffffffffffffffffffffffffffffffffffff168573ffffffffffffffffffffffffffffffffffffffff160361178b5761178684611bb1565b6117ca565b8473ffffffffffffffffffffffffffffffffffffffff168173ffffffffffffffffffffffffffffffffffffffff16146117c9576117c88585611c82565b5b5b809150509392505050565b6117df8383611d0d565b6117f46117ea610f19565b6000858585611223565b505050565b60007f01ffc9a7000000000000000000000000000000000000000000000000000000007bffffffffffffffffffffffffffffffffffffffffffffffffffffffff1916827bffffffffffffffffffffffffffffffffffffffffffffffffffffffff1916149050919050565b60008061186f846114b6565b9050600073ffffffffffffffffffffffffffffffffffffffff168373ffffffffffffffffffffffffffffffffffffffff16146118b1576118b0818486611e06565b5b600073ffffffffffffffffffffffffffffffffffffffff168173ffffffffffffffffffffffffffffffffffffffff1614611942576118f36000856000806114f3565b6001600360008373ffffffffffffffffffffffffffffffffffffffff1673ffffffffffffffffffffffffffffffffffffffff168152602001908152602001600020600082825403925050819055505b600073ffffffffffffffffffffffffffffffffffffffff168573ffffffffffffffffffffffffffffffffffffffff16146119c5576001600360008773ffffffffffffffffffffffffffffffffffffffff1673ffffffffffffffffffffffffffffffffffffffff168152602001908152602001600020600082825401925050819055505b846002600086815260200190815260200160002060006101000a81548173ffffffffffffffffffffffffffffffffffffffff021916908373ffffffffffffffffffffffffffffffffffffffff160217905550838573ffffffffffffffffffffffffffffffffffffffff168273ffffffffffffffffffffffffffffffffffffffff167fddf252ad1be2c89b69c2b068fc378daa952ba7f163c4a11628f55a4df523b3ef60405160405180910390a4809150509392505050565b6008805490506009600083815260200190815260200160002081905550600881908060018154018082558091505060019003906000526020600020016000909190919091505550565b6000611ad18361077f565b90506000600760008481526020019081526020016000205490506000600660008673ffffffffffffffffffffffffffffffffffffffff1673ffffffffffffffffffffffffffffffffffffffff1681526020019081526020016000209050828214611b7d5760008160008581526020019081526020016000205490508082600085815260200190815260200160002081905550826007600083815260200190815260200160002081905550505b6007600085815260200190815260200160002060009055806000848152602001908152602001600020600090555050505050565b60006001600880549050611bc59190612cbe565b9050600060096000848152602001908152602001600020549050600060088381548110611bf557611bf46127e7565b5b906000526020600020015490508060088381548110611c1757611c166127e7565b5b906000526020600020018190555081600960008381526020019081526020016000208190555060096000858152602001908152602001600020600090556008805480611c6657611c65612cf2565b5b6001900381819060005260206000200160009055905550505050565b60006001611c8f8461077f565b611c999190612cbe565b905081600660008573ffffffffffffffffffffffffffffffffffffffff1673ffffffffffffffffffffffffffffffffffffffff168152602001908152602001600020600083815260200190815260200160002081905550806007600084815260200190815260200160002081905550505050565b600073ffffffffffffffffffffffffffffffffffffffff168273ffffffffffffffffffffffffffffffffffffffff1603611d7f5760006040517f64a0ae92000000000000000000000000000000000000000000000000000000008152600401611d7691906121b0565b60405180910390fd5b6000611d8d83836000610f33565b9050600073ffffffffffffffffffffffffffffffffffffffff168173ffffffffffffffffffffffffffffffffffffffff1614611e015760006040517f73c6ac6e000000000000000000000000000000000000000000000000000000008152600401611df891906121b0565b60405180910390fd5b505050565b611e11838383611eca565b611ec557600073ffffffffffffffffffffffffffffffffffffffff168373ffffffffffffffffffffffffffffffffffffffff1603611e8657806040517f7e273289000000000000000000000000000000000000000000000000000000008152600401611e7d9190612246565b60405180910390fd5b81816040517f177e802f000000000000000000000000000000000000000000000000000000008152600401611ebc9291906127be565b60405180910390fd5b505050565b60008073ffffffffffffffffffffffffffffffffffffffff168373ffffffffffffffffffffffffffffffffffffffff1614158015611f8257508273ffffffffffffffffffffffffffffffffffffffff168473ffffffffffffffffffffffffffffffffffffffff161480611f435750611f428484610cc0565b5b80611f8157508273ffffffffffffffffffffffffffffffffffffffff16611f6983610edc565b73ffffffffffffffffffffffffffffffffffffffff16145b5b90509392505050565b6000604051905090565b600080fd5b600080fd5b60007fffffffff0000000000000000000000000000000000000000000000000000000082169050919050565b611fd481611f9f565b8114611fdf57600080fd5b50565b600081359050611ff181611fcb565b92915050565b60006020828403121561200d5761200c611f95565b5b600061201b84828501611fe2565b91505092915050565b60008115159050919050565b61203981612024565b82525050565b60006020820190506120546000830184612030565b92915050565b600081519050919050565b600082825260208201905092915050565b60005b83811015612094578082015181840152602081019050612079565b60008484015250505050565b6000601f19601f8301169050919050565b60006120bc8261205a565b6120c68185612065565b93506120d6818560208601612076565b6120df816120a0565b840191505092915050565b6000602082019050818103600083015261210481846120b1565b905092915050565b6000819050919050565b61211f8161210c565b811461212a57600080fd5b50565b60008135905061213c81612116565b92915050565b60006020828403121561215857612157611f95565b5b60006121668482850161212d565b91505092915050565b600073ffffffffffffffffffffffffffffffffffffffff82169050919050565b600061219a8261216f565b9050919050565b6121aa8161218f565b82525050565b60006020820190506121c560008301846121a1565b92915050565b6121d48161218f565b81146121df57600080fd5b50565b6000813590506121f1816121cb565b92915050565b6000806040838503121561220e5761220d611f95565b5b600061221c858286016121e2565b925050602061222d8582860161212d565b9150509250929050565b6122408161210c565b82525050565b600060208201905061225b6000830184612237565b92915050565b60008060006060848603121561227a57612279611f95565b5b6000612288868287016121e2565b9350506020612299868287016121e2565b92505060406122aa8682870161212d565b9150509250925092565b6000602082840312156122ca576122c9611f95565b5b60006122d8848285016121e2565b91505092915050565b600067ffffffffffffffff82169050919050565b6122fe816122e1565b82525050565b600060808201905061231960008301876122f5565b818103602083015261232b81866120b1565b9050818103604083015261233f81856120b1565b905061234e6060830184612237565b95945050505050565b612360816122e1565b811461236b57600080fd5b50565b60008135905061237d81612357565b92915050565b600080fd5b600080fd5b7f4e487b7100000000000000000000000000000000000000000000000000000000600052604160045260246000fd5b6123c5826120a0565b810181811067ffffffffffffffff821117156123e4576123e361238d565b5b80604052505050565b60006123f7611f8b565b905061240382826123bc565b919050565b600067ffffffffffffffff8211156124235761242261238d565b5b61242c826120a0565b9050602081019050919050565b82818337600083830152505050565b600061245b61245684612408565b6123ed565b90508281526020810184848401111561247757612476612388565b5b612482848285612439565b509392505050565b600082601f83011261249f5761249e612383565b5b81356124af848260208601612448565b91505092915050565b600080600080608085870312156124d2576124d1611f95565b5b60006124e0878288016121e2565b94505060206124f18782880161236e565b935050604085013567ffffffffffffffff81111561251257612511611f9a565b5b61251e8782880161248a565b925050606085013567ffffffffffffffff81111561253f5761253e611f9a565b5b61254b8782880161248a565b91505092959194509250565b61256081612024565b811461256b57600080fd5b50565b60008135905061257d81612557565b92915050565b6000806040838503121561259a57612599611f95565b5b60006125a8858286016121e2565b92505060206125b98582860161256e565b9150509250929050565b600067ffffffffffffffff8211156125de576125dd61238d565b5b6125e7826120a0565b9050602081019050919050565b6000612607612602846125c3565b6123ed565b90508281526020810184848401111561262357612622612388565b5b61262e848285612439565b509392505050565b600082601f83011261264b5761264a612383565b5b813561265b8482602086016125f4565b91505092915050565b6000806000806080858703121561267e5761267d611f95565b5b600061268c878288016121e2565b945050602061269d878288016121e2565b93505060406126ae8782880161212d565b925050606085013567ffffffffffffffff8111156126cf576126ce611f9a565b5b6126db87828801612636565b91505092959194509250565b600080604083850312156126fe576126fd611f95565b5b600061270c858286016121e2565b925050602061271d858286016121e2565b9150509250929050565b7f4e487b7100000000000000000000000000000000000000000000000000000000600052602260045260246000fd5b6000600282049050600182168061276e57607f821691505b60208210810361278157612780612727565b5b50919050565b600060608201905061279c60008301866121a1565b6127a96020830185612237565b6127b660408301846121a1565b949350505050565b60006040820190506127d360008301856121a1565b6127e06020830184612237565b9392505050565b7f4e487b7100000000000000000000000000000000000000000000000000000000600052603260045260246000fd5b7f4e487b7100000000000000000000000000000000000000000000000000000000600052601160045260246000fd5b60006128508261210c565b91507fffffffffffffffffffffffffffffffffffffffffffffffffffffffffffffffff820361288257612881612816565b5b600182019050919050565b60008190508160005260206000209050919050565b60006020601f8301049050919050565b600082821b905092915050565b6000600883026128ef7fffffffffffffffffffffffffffffffffffffffffffffffffffffffffffffffff826128b2565b6128f986836128b2565b95508019841693508086168417925050509392505050565b6000819050919050565b600061293661293161292c8461210c565b612911565b61210c565b9050919050565b6000819050919050565b6129508361291b565b61296461295c8261293d565b8484546128bf565b825550505050565b600090565b61297961296c565b612984818484612947565b505050565b5b818110156129a85761299d600082612971565b60018101905061298a565b5050565b601f8211156129ed576129be8161288d565b6129c7846128a2565b810160208510156129d6578190505b6129ea6129e2856128a2565b830182612989565b50505b505050565b600082821c905092915050565b6000612a10600019846008026129f2565b1980831691505092915050565b6000612a2983836129ff565b9150826002028217905092915050565b612a428261205a565b67ffffffffffffffff811115612a5b57612a5a61238d565b5b612a658254612756565b612a708282856129ac565b600060209050601f831160018114612aa35760008415612a91578287015190505b612a9b8582612a1d565b865550612b03565b601f198416612ab18661288d565b60005b82811015612ad957848901518255600182019150602085019450602081019050612ab4565b86831015612af65784890151612af2601f8916826129ff565b8355505b6001600288020188555050505b505050505050565b6000606082019050612b2060008301866122f5565b612b2d60208301856121a1565b8181036040830152612b3f81846120b1565b9050949350505050565b7f4552433732313a2055524920717565727920666f72206e6f6e6578697374656e60008201527f74206f7220756e7265676973746572656420746f6b656e000000000000000000602082015250565b6000612ba5603783612065565b9150612bb082612b49565b604082019050919050565b60006020820190508181036000830152612bd481612b98565b9050919050565b600081519050919050565b600082825260208201905092915050565b6000612c0282612bdb565b612c0c8185612be6565b9350612c1c818560208601612076565b612c25816120a0565b840191505092915050565b6000608082019050612c4560008301876121a1565b612c5260208301866121a1565b612c5f6040830185612237565b8181036060830152612c718184612bf7565b905095945050505050565b600081519050612c8b81611fcb565b92915050565b600060208284031215612ca757612ca6611f95565b5b6000612cb584828501612c7c565b91505092915050565b6000612cc98261210c565b9150612cd48361210c565b9250828203905081811115612cec57612ceb612816565b5b92915050565b7f4e487b7100000000000000000000000000000000000000000000000000000000600052603160045260246000fdfea26469706673582212207b81ac4cc7fde17523df0a5cc9b087207157539bb8b206e669407058c796135264736f6c634300081c0033",
  "linkReferences": {},
  "deployedLinkReferences": {}
}