{
  "_format": "hh-sol-artifact-1",
  "contractName": "StreamingProtocol",
  "sourceName": "contracts/StreamingProtocol.sol",
  "abi": [
    {
      "inputs": [
        {
          "internalType": "address",
          "name": "_streamTokenAddress",
          "type": "address"
        },
        {
          "internalType": "address",
          "name": "initialOwner",
          "type": "address"
        }
      ],
      "stateMutability": "nonpayable",
      "type": "constructor"
    },
    {
      "inputs": [],
      "name": "InsufficientBalance",
      "type": "error"
    },
    {
      "inputs": [
        {
          "internalType": "uint256",
          "name": "streamId",
          "type": "uint256"
        }
      ],
      "name": "InvalidStreamId",
      "type": "error"
    },
    {
      "inputs": [
        {
          "internalType": "uint256",
          "name": "streamId",
          "type": "uint256"
        },
        {
          "internalType": "address",
          "name": "caller",
          "type": "address"
        }
      ],
      "name": "NotSenderOrRecipient",
      "type": "error"
    },
    {
      "inputs": [
        {
          "internalType": "uint256",
          "name": "streamId",
          "type": "uint256"
        },
        {
          "internalType": "address",
          "name": "caller",
          "type": "address"
        }
      ],
      "name": "NotStreamRecipient",
      "type": "error"
    },
    {
      "inputs": [
        {
          "internalType": "address",
          "name": "owner",
          "type": "address"
        }
      ],
      "name": "OwnableInvalidOwner",
      "type": "error"
    },
    {
      "inputs": [
        {
          "internalType": "address",
          "name": "account",
          "type": "address"
        }
      ],
      "name": "OwnableUnauthorizedAccount",
      "type": "error"
    },
    {
      "inputs": [
        {
          "internalType": "uint256",
          "name": "streamId",
          "type": "uint256"
        }
      ],
      "name": "StreamNotActive",
      "type": "error"
    },
    {
      "anonymous": false,
      "inputs": [
        {
          "indexed": true,
          "internalType": "uint256",
          "name": "streamId",
          "type": "uint256"
        },
        {
          "indexed": true,
          "internalType": "address",
          "name": "recipient",
          "type": "address"
        },
        {
          "indexed": false,
          "internalType": "uint256",
          "name": "amount",
          "type": "uint256"
        }
      ],
      "name": "ClaimedFromStream",
      "type": "event"
    },
    {
      "anonymous": false,
      "inputs": [
        {
          "indexed": true,
          "internalType": "address",
          "name": "previousOwner",
          "type": "address"
        },
        {
          "indexed": true,
          "internalType": "address",
          "name": "newOwner",
          "type": "address"
        }
      ],
      "name": "OwnershipTransferred",
      "type": "event"
    },
    {
      "anonymous": false,
      "inputs": [
        {
          "indexed": true,
          "internalType": "uint256",
          "name": "streamId",
          "type": "uint256"
        },
        {
          "indexed": true,
          "internalType": "address",
          "name": "sender",
          "type": "address"
        },
        {
          "indexed": false,
          "internalType": "uint256",
          "name": "senderBalance",
          "type": "uint256"
        },
        {
          "indexed": false,
          "internalType": "uint256",
          "name": "recipientBalance",
          "type": "uint256"
        }
      ],
      "name": "StreamCanceled",
      "type": "event"
    },
    {
      "anonymous": false,
      "inputs": [
        {
          "indexed": true,
          "internalType": "uint256",
          "name": "streamId",
          "type": "uint256"
        },
        {
          "indexed": true,
          "internalType": "address",
          "name": "sender",
          "type": "address"
        },
        {
          "indexed": true,
          "internalType": "address",
          "name": "recipient",
          "type": "address"
        },
        {
          "indexed": false,
          "internalType": "uint256",
          "name": "totalAmount",
          "type": "uint256"
        }
      ],
      "name": "StreamCreated",
      "type": "event"
    },
    {
      "inputs": [
        {
          "internalType": "uint256",
          "name": "streamId",
          "type": "uint256"
        }
      ],
      "name": "cancelStream",
      "outputs": [],
      "stateMutability": "nonpayable",
      "type": "function"
    },
    {
      "inputs": [
        {
          "internalType": "uint256",
          "name": "streamId",
          "type": "uint256"
        }
      ],
      "name": "claimFromStream",
      "outputs": [],
      "stateMutability": "nonpayable",
      "type": "function"
    },
    {
      "inputs": [
        {
          "internalType": "uint256",
          "name": "streamId",
          "type": "uint256"
        }
      ],
      "name": "claimableBalance",
      "outputs": [
        {
          "internalType": "uint256",
          "name": "",
          "type": "uint256"
        }
      ],
      "stateMutability": "view",
      "type": "function"
    },
    {
      "inputs": [
        {
          "internalType": "address",
          "name": "sender",
          "type": "address"
        },
        {
          "internalType": "address",
          "name": "recipient",
          "type": "address"
        },
        {
          "internalType": "uint256",
          "name": "totalAmount",
          "type": "uint256"
        },
        {
          "internalType": "uint256",
          "name": "duration",
          "type": "uint256"
        }
      ],
      "name": "createStream",
      "outputs": [
        {
          "internalType": "uint256",
          "name": "",
          "type": "uint256"
        }
      ],
      "stateMutability": "nonpayable",
      "type": "function"
    },
    {
      "inputs": [],
      "name": "owner",
      "outputs": [
        {
          "internalType": "address",
          "name": "",
          "type": "address"
        }
      ],
      "stateMutability": "view",
      "type": "function"
    },
    {
      "inputs": [],
      "name": "renounceOwnership",
      "outputs": [],
      "stateMutability": "nonpayable",
      "type": "function"
    },
    {
      "inputs": [],
      "name": "streamToken",
      "outputs": [
        {
          "internalType": "contract IERC20",
          "name": "",
          "type": "address"
        }
      ],
      "stateMutability": "view",
      "type": "function"
    },
    {
      "inputs": [
        {
          "internalType": "uint256",
          "name": "",
          "type": "uint256"
        }
      ],
      "name": "streams",
      "outputs": [
        {
          "internalType": "address",
          "name": "sender",
          "type": "address"
        },
        {
          "internalType": "address",
          "name": "recipient",
          "type": "address"
        },
        {
          "internalType": "uint256",
          "name": "totalAmount",
          "type": "uint256"
        },
        {
          "internalType": "uint256",
          "name": "flowRate",
          "type": "uint256"
        },
        {
          "internalType": "uint256",
          "name": "startTime",
          "type": "uint256"
        },
        {
          "internalType": "uint256",
          "name": "stopTime",
          "type": "uint256"
        },
        {
          "internalType": "uint256",
          "name": "amountWithdrawn",
          "type": "uint256"
        },
        {
          "internalType": "bool",
          "name": "isActive",
          "type": "bool"
        }
      ],
      "stateMutability": "view",
      "type": "function"
    },
    {
      "inputs": [
        {
          "internalType": "address",
          "name": "newOwner",
          "type": "address"
        }
      ],
      "name": "transferOwnership",
      "outputs": [],
      "stateMutability": "nonpayable",
      "type": "function"
    }
  ],
  "bytecode": "0x608060405234801561001057600080fd5b50604051611ac2380380611ac283398181016040528101906100329190610224565b80600073ffffffffffffffffffffffffffffffffffffffff168173ffffffffffffffffffffffffffffffffffffffff16036100a55760006040517f1e4fbdf700000000000000000000000000000000000000000000000000000000815260040161009c9190610273565b60405180910390fd5b6100b4816100fd60201b60201c565b5081600360006101000a81548173ffffffffffffffffffffffffffffffffffffffff021916908373ffffffffffffffffffffffffffffffffffffffff160217905550505061028e565b60008060009054906101000a900473ffffffffffffffffffffffffffffffffffffffff169050816000806101000a81548173ffffffffffffffffffffffffffffffffffffffff021916908373ffffffffffffffffffffffffffffffffffffffff1602179055508173ffffffffffffffffffffffffffffffffffffffff168173ffffffffffffffffffffffffffffffffffffffff167f8be0079c531659141344cd1fd0a4f28419497f9722a3daafe3b4186f6b6457e060405160405180910390a35050565b600080fd5b600073ffffffffffffffffffffffffffffffffffffffff82169050919050565b60006101f1826101c6565b9050919050565b610201816101e6565b811461020c57600080fd5b50565b60008151905061021e816101f8565b92915050565b6000806040838503121561023b5761023a6101c1565b5b60006102498582860161020f565b925050602061025a8582860161020f565b9150509250929050565b61026d816101e6565b82525050565b60006020820190506102886000830184610264565b92915050565b6118258061029d6000396000f3fe608060405234801561001057600080fd5b50600436106100935760003560e01c8063715018a611610066578063715018a61461012557806385d3374f1461012f5780638da5cb5b1461015f578063b61b6ce21461017d578063f2fde38b146101ad57610093565b806339cba11f1461009857806339fce800146100b657806364d60d91146100d25780636db9241b14610109575b600080fd5b6100a06101c9565b6040516100ad91906110d2565b60405180910390f35b6100d060048036038101906100cb9190611128565b6101ef565b005b6100ec60048036038101906100e79190611128565b6104a8565b6040516101009897969594939291906111a0565b60405180910390f35b610123600480360381019061011e9190611128565b61053d565b005b61012d610901565b005b61014960048036038101906101449190611128565b610915565b604051610156919061121e565b60405180910390f35b6101676109b5565b6040516101749190611239565b60405180910390f35b61019760048036038101906101929190611280565b6109de565b6040516101a4919061121e565b60405180910390f35b6101c760048036038101906101c291906112e7565b610e7a565b005b600360009054906101000a900473ffffffffffffffffffffffffffffffffffffffff1681565b60006002600083815260200190815260200160002090508060010160009054906101000a900473ffffffffffffffffffffffffffffffffffffffff1673ffffffffffffffffffffffffffffffffffffffff163373ffffffffffffffffffffffffffffffffffffffff161461029c5781336040517f0cfe826b000000000000000000000000000000000000000000000000000000008152600401610293929190611314565b60405180910390fd5b8060070160009054906101000a900460ff166102ef57816040517fa6b371580000000000000000000000000000000000000000000000000000000081526004016102e6919061121e565b60405180910390fd5b60006102fa83610915565b90506000810361030b5750506104a5565b8082600601600082825461031f919061136c565b925050819055506000600360009054906101000a900473ffffffffffffffffffffffffffffffffffffffff1673ffffffffffffffffffffffffffffffffffffffff1663a9059cbb8460010160009054906101000a900473ffffffffffffffffffffffffffffffffffffffff16846040518363ffffffff1660e01b81526004016103a99291906113a0565b6020604051808303816000875af11580156103c8573d6000803e3d6000fd5b505050506040513d601f19601f820116820180604052508101906103ec91906113f5565b90508061042e576040517f08c379a00000000000000000000000000000000000000000000000000000000081526004016104259061147f565b60405180910390fd5b8260010160009054906101000a900473ffffffffffffffffffffffffffffffffffffffff1673ffffffffffffffffffffffffffffffffffffffff16847fe4f96cb1d81bdd10a00c916e49be6714a178c7d47d2d27b7a6afbcb2ddfca20a84604051610499919061121e565b60405180910390a35050505b50565b60026020528060005260406000206000915090508060000160009054906101000a900473ffffffffffffffffffffffffffffffffffffffff16908060010160009054906101000a900473ffffffffffffffffffffffffffffffffffffffff16908060020154908060030154908060040154908060050154908060060154908060070160009054906101000a900460ff16905088565b60006002600083815260200190815260200160002090508060000160009054906101000a900473ffffffffffffffffffffffffffffffffffffffff1673ffffffffffffffffffffffffffffffffffffffff163373ffffffffffffffffffffffffffffffffffffffff161415801561060457508060010160009054906101000a900473ffffffffffffffffffffffffffffffffffffffff1673ffffffffffffffffffffffffffffffffffffffff163373ffffffffffffffffffffffffffffffffffffffff1614155b156106485781336040517f998a06af00000000000000000000000000000000000000000000000000000000815260040161063f929190611314565b60405180910390fd5b8060070160009054906101000a900460ff1661069b57816040517fa6b37158000000000000000000000000000000000000000000000000000000008152600401610692919061121e565b60405180910390fd5b60006106a683610915565b9050600081836006015484600201546106bf919061149f565b6106c9919061149f565b905060008360070160006101000a81548160ff02191690831515021790555060008211156107b757600360009054906101000a900473ffffffffffffffffffffffffffffffffffffffff1673ffffffffffffffffffffffffffffffffffffffff1663a9059cbb8460010160009054906101000a900473ffffffffffffffffffffffffffffffffffffffff16846040518363ffffffff1660e01b81526004016107729291906113a0565b6020604051808303816000875af1158015610791573d6000803e3d6000fd5b505050506040513d601f19601f820116820180604052508101906107b591906113f5565b505b600081111561088657600360009054906101000a900473ffffffffffffffffffffffffffffffffffffffff1673ffffffffffffffffffffffffffffffffffffffff1663a9059cbb8460000160009054906101000a900473ffffffffffffffffffffffffffffffffffffffff16836040518363ffffffff1660e01b81526004016108419291906113a0565b6020604051808303816000875af1158015610860573d6000803e3d6000fd5b505050506040513d601f19601f8201168201806040525081019061088491906113f5565b505b8260000160009054906101000a900473ffffffffffffffffffffffffffffffffffffffff1673ffffffffffffffffffffffffffffffffffffffff16847fb2b1fb9138dcac018a1af86098a9e241821b52dfd853933beda7b5b3ec807f3983856040516108f39291906114d3565b60405180910390a350505050565b610909610f00565b6109136000610f87565b565b6000806002600084815260200190815260200160002090508060070160009054906101000a900460ff1661094d5760009150506109b0565b60008160050154421161096f5781600401544261096a919061149f565b610984565b81600401548260050154610983919061149f565b5b9050600082600301548261099891906114fc565b90508260060154816109aa919061149f565b93505050505b919050565b60008060009054906101000a900473ffffffffffffffffffffffffffffffffffffffff16905090565b60006109e8610f00565b60008211610a2b576040517f08c379a0000000000000000000000000000000000000000000000000000000008152600401610a22906115b0565b60405180910390fd5b60008311610a6e576040517f08c379a0000000000000000000000000000000000000000000000000000000008152600401610a6590611642565b60405180910390fd5b60008284610a7c9190611691565b905060008111610ac1576040517f08c379a0000000000000000000000000000000000000000000000000000000008152600401610ab89061170e565b60405180910390fd5b83600360009054906101000a900473ffffffffffffffffffffffffffffffffffffffff1673ffffffffffffffffffffffffffffffffffffffff166370a08231886040518263ffffffff1660e01b8152600401610b1d9190611239565b602060405180830381865afa158015610b3a573d6000803e3d6000fd5b505050506040513d601f19601f82011682018060405250810190610b5e9190611743565b1015610b96576040517ff4d678b800000000000000000000000000000000000000000000000000000000815260040160405180910390fd5b6000600360009054906101000a900473ffffffffffffffffffffffffffffffffffffffff1673ffffffffffffffffffffffffffffffffffffffff166323b872dd8830886040518463ffffffff1660e01b8152600401610bf793929190611770565b6020604051808303816000875af1158015610c16573d6000803e3d6000fd5b505050506040513d601f19601f82011682018060405250810190610c3a91906113f5565b905080610c7c576040517f08c379a0000000000000000000000000000000000000000000000000000000008152600401610c739061147f565b60405180910390fd5b60016000815480929190610c8f906117a7565b9190505550600060015490506040518061010001604052808973ffffffffffffffffffffffffffffffffffffffff1681526020018873ffffffffffffffffffffffffffffffffffffffff1681526020018781526020018481526020014281526020018642610cfd919061136c565b815260200160008152602001600115158152506002600083815260200190815260200160002060008201518160000160006101000a81548173ffffffffffffffffffffffffffffffffffffffff021916908373ffffffffffffffffffffffffffffffffffffffff16021790555060208201518160010160006101000a81548173ffffffffffffffffffffffffffffffffffffffff021916908373ffffffffffffffffffffffffffffffffffffffff16021790555060408201518160020155606082015181600301556080820151816004015560a0820151816005015560c0820151816006015560e08201518160070160006101000a81548160ff0219169083151502179055509050508673ffffffffffffffffffffffffffffffffffffffff168873ffffffffffffffffffffffffffffffffffffffff16827f4396d7c3edc1447dac8dd2b7143af95840c926a210524a0d3198012c7fdf37c789604051610e64919061121e565b60405180910390a4809350505050949350505050565b610e82610f00565b600073ffffffffffffffffffffffffffffffffffffffff168173ffffffffffffffffffffffffffffffffffffffff1603610ef45760006040517f1e4fbdf7000000000000000000000000000000000000000000000000000000008152600401610eeb9190611239565b60405180910390fd5b610efd81610f87565b50565b610f0861104b565b73ffffffffffffffffffffffffffffffffffffffff16610f266109b5565b73ffffffffffffffffffffffffffffffffffffffff1614610f8557610f4961104b565b6040517f118cdaa7000000000000000000000000000000000000000000000000000000008152600401610f7c9190611239565b60405180910390fd5b565b60008060009054906101000a900473ffffffffffffffffffffffffffffffffffffffff169050816000806101000a81548173ffffffffffffffffffffffffffffffffffffffff021916908373ffffffffffffffffffffffffffffffffffffffff1602179055508173ffffffffffffffffffffffffffffffffffffffff168173ffffffffffffffffffffffffffffffffffffffff167f8be0079c531659141344cd1fd0a4f28419497f9722a3daafe3b4186f6b6457e060405160405180910390a35050565b600033905090565b600073ffffffffffffffffffffffffffffffffffffffff82169050919050565b6000819050919050565b600061109861109361108e84611053565b611073565b611053565b9050919050565b60006110aa8261107d565b9050919050565b60006110bc8261109f565b9050919050565b6110cc816110b1565b82525050565b60006020820190506110e760008301846110c3565b92915050565b600080fd5b6000819050919050565b611105816110f2565b811461111057600080fd5b50565b600081359050611122816110fc565b92915050565b60006020828403121561113e5761113d6110ed565b5b600061114c84828501611113565b91505092915050565b600061116082611053565b9050919050565b61117081611155565b82525050565b61117f816110f2565b82525050565b60008115159050919050565b61119a81611185565b82525050565b6000610100820190506111b6600083018b611167565b6111c3602083018a611167565b6111d06040830189611176565b6111dd6060830188611176565b6111ea6080830187611176565b6111f760a0830186611176565b61120460c0830185611176565b61121160e0830184611191565b9998505050505050505050565b60006020820190506112336000830184611176565b92915050565b600060208201905061124e6000830184611167565b92915050565b61125d81611155565b811461126857600080fd5b50565b60008135905061127a81611254565b92915050565b6000806000806080858703121561129a576112996110ed565b5b60006112a88782880161126b565b94505060206112b98782880161126b565b93505060406112ca87828801611113565b92505060606112db87828801611113565b91505092959194509250565b6000602082840312156112fd576112fc6110ed565b5b600061130b8482850161126b565b91505092915050565b60006040820190506113296000830185611176565b6113366020830184611167565b9392505050565b7f4e487b7100000000000000000000000000000000000000000000000000000000600052601160045260246000fd5b6000611377826110f2565b9150611382836110f2565b925082820190508082111561139a5761139961133d565b5b92915050565b60006040820190506113b56000830185611167565b6113c26020830184611176565b9392505050565b6113d281611185565b81146113dd57600080fd5b50565b6000815190506113ef816113c9565b92915050565b60006020828403121561140b5761140a6110ed565b5b6000611419848285016113e0565b91505092915050565b600082825260208201905092915050565b7f546f6b656e207472616e73666572206661696c65640000000000000000000000600082015250565b6000611469601583611422565b915061147482611433565b602082019050919050565b600060208201905081810360008301526114988161145c565b9050919050565b60006114aa826110f2565b91506114b5836110f2565b92508282039050818111156114cd576114cc61133d565b5b92915050565b60006040820190506114e86000830185611176565b6114f56020830184611176565b9392505050565b6000611507826110f2565b9150611512836110f2565b9250828202611520816110f2565b915082820484148315176115375761153661133d565b5b5092915050565b7f4475726174696f6e206d7573742062652067726561746572207468616e207a6560008201527f726f000000000000000000000000000000000000000000000000000000000000602082015250565b600061159a602283611422565b91506115a58261153e565b604082019050919050565b600060208201905081810360008301526115c98161158d565b9050919050565b7f546f74616c20616d6f756e74206d75737420626520677265617465722074686160008201527f6e207a65726f0000000000000000000000000000000000000000000000000000602082015250565b600061162c602683611422565b9150611637826115d0565b604082019050919050565b6000602082019050818103600083015261165b8161161f565b9050919050565b7f4e487b7100000000000000000000000000000000000000000000000000000000600052601260045260246000fd5b600061169c826110f2565b91506116a7836110f2565b9250826116b7576116b6611662565b5b828204905092915050565b7f466c6f7720726174652063616e6e6f74206265207a65726f0000000000000000600082015250565b60006116f8601883611422565b9150611703826116c2565b602082019050919050565b60006020820190508181036000830152611727816116eb565b9050919050565b60008151905061173d816110fc565b92915050565b600060208284031215611759576117586110ed565b5b60006117678482850161172e565b91505092915050565b60006060820190506117856000830186611167565b6117926020830185611167565b61179f6040830184611176565b949350505050565b60006117b2826110f2565b91507fffffffffffffffffffffffffffffffffffffffffffffffffffffffffffffffff82036117e4576117e361133d565b5b60018201905091905056fea2646970667358221220f6af4e8530770fae9e84fcacd333857a675551e015d1028d93975fe652bf06f264736f6c634300081c0033",
  "linkReferences": {},
  "deployedLinkReferences": {}
}