{
  "_format": "hh-sol-artifact-1",
  "contractName": "RWAHub",
  "sourceName": "contracts/RWAHub.sol",
  "abi": [
    {
      "inputs": [
        {
          "internalType": "address",
          "name": "_registryAddress",
          "type": "address"
        },
        {
          "internalType": "address",
          "name": "_protocolAddress",
          "type": "address"
        },
        {
          "internalType": "address",
          "name": "initialOwner",
          "type": "address"
        }
      ],
      "stateMutability": "nonpayable",
      "type": "constructor"
    },
    {
      "inputs": [
        {
          "internalType": "address",
          "name": "owner",
          "type": "address"
        }
      ],
      "name": "OwnableInvalidOwner",
      "type": "error"
    },
    {
      "inputs": [
        {
          "internalType": "address",
          "name": "account",
          "type": "address"
        }
      ],
      "name": "OwnableUnauthorizedAccount",
      "type": "error"
    },
    {
      "anonymous": false,
      "inputs": [
        {
          "indexed": true,
          "internalType": "address",
          "name": "previousOwner",
          "type": "address"
        },
        {
          "indexed": true,
          "internalType": "address",
          "name": "newOwner",
          "type": "address"
        }
      ],
      "name": "OwnershipTransferred",
      "type": "event"
    },
    {
      "anonymous": false,
      "inputs": [
        {
          "indexed": true,
          "internalType": "uint256",
          "name": "tokenId",
          "type": "uint256"
        },
        {
          "indexed": true,
          "internalType": "uint256",
          "name": "streamId",
          "type": "uint256"
        },
        {
          "indexed": true,
          "internalType": "address",
          "name": "owner",
          "type": "address"
        },
        {
          "indexed": false,
          "internalType": "string",
          "name": "metadataUri",
          "type": "string"
        },
        {
          "indexed": false,
          "internalType": "string",
          "name": "unibaseId",
          "type": "string"
        }
      ],
      "name": "PropertyStreamCreated",
      "type": "event"
    },
    {
      "inputs": [
        {
          "internalType": "address",
          "name": "owner",
          "type": "address"
        },
        {
          "internalType": "string",
          "name": "metadataUri",
          "type": "string"
        },
        {
          "internalType": "string",
          "name": "unibaseId",
          "type": "string"
        },
        {
          "internalType": "uint256",
          "name": "totalYield",
          "type": "uint256"
        },
        {
          "internalType": "uint256",
          "name": "duration",
          "type": "uint256"
        }
      ],
      "name": "createCompliantPropertyStream",
      "outputs": [],
      "stateMutability": "nonpayable",
      "type": "function"
    },
    {
      "inputs": [],
      "name": "owner",
      "outputs": [
        {
          "internalType": "address",
          "name": "",
          "type": "address"
        }
      ],
      "stateMutability": "view",
      "type": "function"
    },
    {
      "inputs": [],
      "name": "propertyRegistry",
      "outputs": [
        {
          "internalType": "contract PropertyRegistry",
          "name": "",
          "type": "address"
        }
      ],
      "stateMutability": "view",
      "type": "function"
    },
    {
      "inputs": [],
      "name": "renounceOwnership",
      "outputs": [],
      "stateMutability": "nonpayable",
      "type": "function"
    },
    {
      "inputs": [],
      "name": "streamingProtocol",
      "outputs": [
        {
          "internalType": "contract StreamingProtocol",
          "name": "",
          "type": "address"
        }
      ],
      "stateMutability": "view",
      "type": "function"
    },
    {
      "inputs": [
        {
          "internalType": "address",
          "name": "newOwner",
          "type": "address"
        }
      ],
      "name": "transferOwnership",
      "outputs": [],
      "stateMutability": "nonpayable",
      "type": "function"
    }
  ],
  "bytecode": "0x608060405234801561001057600080fd5b50604051610db0380380610db083398181016040528101906100329190610266565b80600073ffffffffffffffffffffffffffffffffffffffff168173ffffffffffffffffffffffffffffffffffffffff16036100a55760006040517f1e4fbdf700000000000000000000000000000000000000000000000000000000815260040161009c91906102c8565b60405180910390fd5b6100b48161013f60201b60201c565b5082600160006101000a81548173ffffffffffffffffffffffffffffffffffffffff021916908373ffffffffffffffffffffffffffffffffffffffff16021790555081600260006101000a81548173ffffffffffffffffffffffffffffffffffffffff021916908373ffffffffffffffffffffffffffffffffffffffff1602179055505050506102e3565b60008060009054906101000a900473ffffffffffffffffffffffffffffffffffffffff169050816000806101000a81548173ffffffffffffffffffffffffffffffffffffffff021916908373ffffffffffffffffffffffffffffffffffffffff1602179055508173ffffffffffffffffffffffffffffffffffffffff168173ffffffffffffffffffffffffffffffffffffffff167f8be0079c531659141344cd1fd0a4f28419497f9722a3daafe3b4186f6b6457e060405160405180910390a35050565b600080fd5b600073ffffffffffffffffffffffffffffffffffffffff82169050919050565b600061023382610208565b9050919050565b61024381610228565b811461024e57600080fd5b50565b6000815190506102608161023a565b92915050565b60008060006060848603121561027f5761027e610203565b5b600061028d86828701610251565b935050602061029e86828701610251565b92505060406102af86828701610251565b9150509250925092565b6102c281610228565b82525050565b60006020820190506102dd60008301846102b9565b92915050565b610abe806102f26000396000f3fe608060405234801561001057600080fd5b50600436106100625760003560e01c806326b703a71461006757806347329c2114610085578063715018a6146100a35780638da5cb5b146100ad578063f2fde38b146100cb578063f5ffb920146100e7575b600080fd5b61006f610103565b60405161007c9190610597565b60405180910390f35b61008d610129565b60405161009a91906105d3565b60405180910390f35b6100ab61014f565b005b6100b5610163565b6040516100c2919061060f565b60405180910390f35b6100e560048036038101906100e0919061066a565b61018c565b005b61010160048036038101906100fc9190610813565b610212565b005b600160009054906101000a900473ffffffffffffffffffffffffffffffffffffffff1681565b600260009054906101000a900473ffffffffffffffffffffffffffffffffffffffff1681565b6101576103c5565b610161600061044c565b565b60008060009054906101000a900473ffffffffffffffffffffffffffffffffffffffff16905090565b6101946103c5565b600073ffffffffffffffffffffffffffffffffffffffff168173ffffffffffffffffffffffffffffffffffffffff16036102065760006040517f1e4fbdf70000000000000000000000000000000000000000000000000000000081526004016101fd919061060f565b60405180910390fd5b61020f8161044c565b50565b61021a6103c5565b6000600260009054906101000a900473ffffffffffffffffffffffffffffffffffffffff1673ffffffffffffffffffffffffffffffffffffffff1663b61b6ce2338886866040518563ffffffff1660e01b815260040161027d94939291906108d5565b6020604051808303816000875af115801561029c573d6000803e3d6000fd5b505050506040513d601f19601f820116820180604052508101906102c0919061092f565b90506000600160009054906101000a900473ffffffffffffffffffffffffffffffffffffffff1673ffffffffffffffffffffffffffffffffffffffff1663996ef5bc888489896040518563ffffffff1660e01b815260040161032594939291906109fe565b6020604051808303816000875af1158015610344573d6000803e3d6000fd5b505050506040513d601f19601f82011682018060405250810190610368919061092f565b90508673ffffffffffffffffffffffffffffffffffffffff1682827fcb5bc1f7ac8ea07e0b40f09844495ad363e240051ae722ff8ac2eda0af7d62cc89896040516103b4929190610a51565b60405180910390a450505050505050565b6103cd610510565b73ffffffffffffffffffffffffffffffffffffffff166103eb610163565b73ffffffffffffffffffffffffffffffffffffffff161461044a5761040e610510565b6040517f118cdaa7000000000000000000000000000000000000000000000000000000008152600401610441919061060f565b60405180910390fd5b565b60008060009054906101000a900473ffffffffffffffffffffffffffffffffffffffff169050816000806101000a81548173ffffffffffffffffffffffffffffffffffffffff021916908373ffffffffffffffffffffffffffffffffffffffff1602179055508173ffffffffffffffffffffffffffffffffffffffff168173ffffffffffffffffffffffffffffffffffffffff167f8be0079c531659141344cd1fd0a4f28419497f9722a3daafe3b4186f6b6457e060405160405180910390a35050565b600033905090565b600073ffffffffffffffffffffffffffffffffffffffff82169050919050565b6000819050919050565b600061055d61055861055384610518565b610538565b610518565b9050919050565b600061056f82610542565b9050919050565b600061058182610564565b9050919050565b61059181610576565b82525050565b60006020820190506105ac6000830184610588565b92915050565b60006105bd82610564565b9050919050565b6105cd816105b2565b82525050565b60006020820190506105e860008301846105c4565b92915050565b60006105f982610518565b9050919050565b610609816105ee565b82525050565b60006020820190506106246000830184610600565b92915050565b6000604051905090565b600080fd5b600080fd5b610647816105ee565b811461065257600080fd5b50565b6000813590506106648161063e565b92915050565b6000602082840312156106805761067f610634565b5b600061068e84828501610655565b91505092915050565b600080fd5b600080fd5b6000601f19601f8301169050919050565b7f4e487b7100000000000000000000000000000000000000000000000000000000600052604160045260246000fd5b6106ea826106a1565b810181811067ffffffffffffffff82111715610709576107086106b2565b5b80604052505050565b600061071c61062a565b905061072882826106e1565b919050565b600067ffffffffffffffff821115610748576107476106b2565b5b610751826106a1565b9050602081019050919050565b82818337600083830152505050565b600061078061077b8461072d565b610712565b90508281526020810184848401111561079c5761079b61069c565b5b6107a784828561075e565b509392505050565b600082601f8301126107c4576107c3610697565b5b81356107d484826020860161076d565b91505092915050565b6000819050919050565b6107f0816107dd565b81146107fb57600080fd5b50565b60008135905061080d816107e7565b92915050565b600080600080600060a0868803121561082f5761082e610634565b5b600061083d88828901610655565b955050602086013567ffffffffffffffff81111561085e5761085d610639565b5b61086a888289016107af565b945050604086013567ffffffffffffffff81111561088b5761088a610639565b5b610897888289016107af565b93505060606108a8888289016107fe565b92505060806108b9888289016107fe565b9150509295509295909350565b6108cf816107dd565b82525050565b60006080820190506108ea6000830187610600565b6108f76020830186610600565b61090460408301856108c6565b61091160608301846108c6565b95945050505050565b600081519050610929816107e7565b92915050565b60006020828403121561094557610944610634565b5b60006109538482850161091a565b91505092915050565b600067ffffffffffffffff82169050919050565b6109798161095c565b82525050565b600081519050919050565b600082825260208201905092915050565b60005b838110156109b957808201518184015260208101905061099e565b60008484015250505050565b60006109d08261097f565b6109da818561098a565b93506109ea81856020860161099b565b6109f3816106a1565b840191505092915050565b6000608082019050610a136000830187610600565b610a206020830186610970565b8181036040830152610a3281856109c5565b90508181036060830152610a4681846109c5565b905095945050505050565b60006040820190508181036000830152610a6b81856109c5565b90508181036020830152610a7f81846109c5565b9050939250505056fea26469706673582212204bde37f357369b6a466786b859ea6c69877fdcb178efdcd95e038f7b2f3414d764736f6c634300081c0033",
  "linkReferences": {},
  "deployedLinkReferences": {}
}